S01200004E54495F544553545F312E73726563F8
S11300000C942A000C94B0020C9489020C944700BE
S11300100C9447000C9447000C9447000C94470040
S11300200C9447000C9447000C941A030C94F302AC
S11300300C9447000C9447000C9447000C94410323
S11300400C9488010C9447000C9447000C944700CE
S11300500C94470011241FBECFE5D8E0DEBFCDBF0E
S113006010E0A0E6B0E0E4EDF6E002C005900D92E9
S1130070A03AB107D9F724E0A0EAB0E001C01D928C
S1130080A239B207E1F70E947F010C9468030C9433
S1130090000041E061E080E00E941C0285E08A9556
S11300A0F1F7000040E061E080E00E941C028FE371
S11300B09FE10197F1F700C000000895CF93C82F86
S11300C040E060E080E00E941C02C4FB442740F949
S11300D062E080E00E941C02C5FB442740F963E013
S11300E080E00E941C02C6FB442740F964E080E0E3
S11300F00E941C024C2F441F4427441F65E080E0EB
S11301000E941C020E9449004C2F417062E080E072
S11301100E941C02C1FB442740F963E080E00E9476
S11301201C02C2FB442740F964E080E00E941C02E8
S1130130C3FB442740F965E080E00E941C020E9452
S11301404900CF910895CF93C82F41E060E080E04B
S11301500E941C02C4FB442740F962E080E00E9434
S11301601C02C5FB442740F963E080E00E941C02A6
S1130170C6FB442740F964E080E00E941C024C2F37
S1130180441F4427441F65E080E00E941C020E9433
S113019049004C2F417062E080E00E941C02C1FBC8
S11301A0442740F963E080E00E941C02C2FB44271C
S11301B040F964E080E00E941C02C3FB442740F93C
S11301C065E080E00E941C020E944900CF910895DE
S11301D0882319F0813031F0089580E8860F0E9459
S11301E05E00089584E9860F0E945E0008950E94CF
S11301F0A30008950F931F93CF93DF93D0E01DC006
S11302000D2F10E0C8010896880F880F880F0E94F0
S11302105E00C0E00FC0F801EE0FFF1FEE0FFF1FDE
S1130220EE0FFF1FE05AFF4FEC0FF11D80810E947B
S1130230F700CF5FC83078F3DF5FD83008F3DF9181
S1130240CF911F910F91089541E060E080E00E94FA
S1130250AF0141E061E080E00E94AF0141E062E073
S113026080E00E94AF0141E063E080E00E94AF01C2
S113027041E064E080E00E94AF0141E065E080E09D
S11302800E94AF0182E00E945E008FE19EE401972C
S1130290F1F700C0000083E00E945E008FE891E067
S11302A00197F1F700C0000082E00E945E008FE534
S11302B09AEE0197F1F700C0000088E20E945E0008
S11302C08FE99FE00197F1F700C000008CE00E94E5
S11302D05E008FE99FE00197F1F700C0000081E024
S11302E00E945E008FE99FE00197F1F700C00000D3
S11302F00E94FA0060E080E00E94E80008950E94F5
S1130300D7020E9424010E94EF020E94F700FBCF53
S11303101F920F920FB60F9211242F933F934F9376
S11303205F936F937F938F939F93AF93BF93EF9359
S1130330FF93E091A400F091A5000995FF91EF913E
S1130340BF91AF919F918F917F916F915F914F91E9
S11303503F912F910F900FBE0F901F9018958130F1
S113036001F130F08230B1F1833009F44CC00895CA
S1130370413059F42AB381E090E002C0880F991FFC
S11303806A95E2F7822B8ABB08952AB381E090E054
S113039002C0880F991F6A95E2F7809582238ABB71
S11303A00895413059F427B381E090E002C0880FEA
S11303B0991F6A95E2F7822B87BB089527B381E0E2
S11303C090E002C0880F991F6A95E2F78095822316
S11303D087BB0895413059F424B381E090E002C012
S11303E0880F991F6A95E2F7822B84BB089524B382
S11303F081E090E002C0880F991F6A95E2F780952A
S1130400822384BB0895413059F421B381E090E004
S113041002C0880F991F6A95E2F7822B81BB089569
S113042021B381E090E002C0880F991F6A95E2F73A
S11304308095822381BB0895813001F130F08230B0
S1130440B1F1833009F44CC0089541110CC02BB3B1
S113045081E090E002C0880F991F6A95E2F78095C9
S113046082238BBB08952BB381E090E002C0880FF8
S1130470991F6A95E2F7822B8BBB089541110CC03A
S113048028B381E090E002C0880F991F6A95E2F7D3
S11304908095822388BB089528B381E090E002C050
S11304A0880F991F6A95E2F7822B88BB0895411142
S11304B00CC025B381E090E002C0880F991F6A95B3
S11304C0E2F78095822385BB089525B381E090E00F
S11304D002C0880F991F6A95E2F7822B85BB0895A5
S11304E041110CC022B381E090E002C0880F991F33
S11304F06A95E2F78095822382BB089522B381E056
S113050090E002C0880F991F6A95E2F7822B82BBA4
S113051008951F920F920FB60F9211242F933F93B9
S11305204F935F936F937F938F939F93AF93BF93F7
S1130530EF93FF93E091A200F091A3000995FF913E
S1130540EF91BF91AF919F918F917F916F915F9147
S11305504F913F912F910F900FBE0F901F901895C0
S11305601F920F920FB60F9211242F933F934F9324
S11305705F936F937F938F939F93AF93BF93EF9307
S1130580FF93E091A200F091A3000995FF91EF91F0
S1130590BF91AF919F918F917F916F915F914F9197
S11305A03F912F910F900FBE0F901F90189540E030
S11305B064E081E00E94AF0140E065E081E00E94D8
S11305C0AF0140E067E081E00E94AF0141E066E0F6
S11305D081E00E94AF018DB180648DB90895779B4D
S11305E0FECF8FB108951F920F920FB60F92112470
S11305F02F933F934F935F936F937F938F939F9327
S1130600AF93BF93EF93FF93E091A800F091A900FB
S11306100995FF91EF91BF91AF919F918F917F9138
S11306206F915F914F913F912F910F900FBE0F905B
S11306301F9018951F920F920FB60F9211242F93AB
S11306403F934F935F936F937F938F939F93AF9356
S1130650BF93EF93FF93E091A600F091A700099553
S1130660FF91EF91BF91AF919F918F917F916F9186
S11306705F914F913F912F910F900FBE0F901F905C
S113068018951F920F920FB60F9211248F939F9378
S1130690EF93FF938091A0009091A1000196909315
S11306A0A1008093A000FC01E655FF4F80818823C0
S11306B011F08CB904C01092A1001092A000FF9117
S11306C0EF919F918F910F900FBE0F901F901895EF
S10706D0F894FFCFC8
S11306D40A1F1F1F1F0E0400041F11111111111FE3
S11306E4041F111111111F1F041F1111111F1F1FAA
S11306F4041F11111F1F1F1F041F111F1F1F1F1F62
S1130704041F1F1F1F1F1F1F0000010105051515CE
S9030000FC
