S014000054494D4552204943552048572E73726563CF
S11300000C942A000C9447000C9447000C9447006D
S11300100C9447000C9447000C9471020C94470014
S11300200C9447000C9447000C9432030C940B037B
S11300300C9447000C9447000C9447000C94470020
S11300400C9447000C9447000C9447000C94470010
S11300500C94470011241FBECFE5D8E0DEBFCDBF0E
S113006010E0A0E6B0E0E4E3FAE002C005900D92EF
S1130070A637B107D9F720E0A6E7B0E001C01D928A
S1130080A138B207E1F70E940B020C9418050C94F6
S113009000008FEF8ABB87BB84E184BB8FEB81BBFD
S11300A008958830E8F4613069F44BB321E030E01E
S11300B0B90102C0660F771F8A95E2F7CB01842B42
S11300C08BBB08954BB321E030E0B90102C0660F49
S11300D0771F8A95E2F7CB01809584238BBB089523
S11300E098EF980F9830E8F4613069F448B321E050
S11300F030E0B90102C0660F771F9A95E2F7CB0191
S1130100842B88BB089548B321E030E0B90102C0D4
S1130110660F771F9A95E2F7CB018095842388BBFD
S1130120089590EF980F9830E8F4613069F445B37E
S113013021E030E0B90102C0660F771F9A95E2F71B
S1130140CB01842B85BB089545B321E030E0B90190
S113015002C0660F771F9A95E2F7CB01809584233E
S113016085BB089588518830E0F4613069F442B366
S113017021E030E0B90102C0660F771F8A95E2F7EB
S1130180CB01842B82BB089542B321E030E0B90156
S113019002C0660F771F8A95E2F7CB01809584230E
S11301A082BB08958FB780688FBF0895CF93DF9384
S11301B0C82FD0E0682F617080E00E945100BE011A
S11301C075956795617081E00E945100BE01759537
S11301D0679575956795617082E00E945100BE0134
S11301E0759567957595679575956795617083E0C5
S11301F00E945100BE017595679575956795759533
S1130200679575956795617084E00E945100BE0101
S113021075956795759567957595679575956795C2
S113022075956795617085E00E945100BE01062EA8
S1130230672F000C661F770B000C661F771F617019
S113024086E00E945100CC0FCD2FCC1FDD0B6C2F0C
S1130250617087E00E94510061E08AE10E945100D0
S113026083EF91E00197F1F700C0000060E08AE1BC
S11302700E94510083EF91E00197F1F700C0000064
S1130280DF91CF910895CF93C82F60E088E10E9459
S1130290510060E089E10E9451008C2F0E94D60039
S11302A0CF910895CF93C82F61E088E10E94510057
S11302B060E089E10E9451008C2F0E94D600CF910A
S11302C0089581E00E94430183EF91E00197F1F7E3
S11302D000C0000008958DE292E20197F1F700C09A
S11302E0000088E30E94430189EF90E00197F1F751
S11302F000C000008CE00E94430189EF90E0019768
S1130300F1F700C000000E94610186E00E944301F1
S113031083EF91E00197F1F700C0000060E08AE10B
S11303200E9451000895813029F480E8860F0E94CC
S113033043010895823021F480EC860F0E9443012A
S113034008950F931F93CF938C01C0E003C00E94C4
S11303505201CF5FF801EC0FF11D80818111F7CFBD
S1130360CF911F910F91089521E030E090E007C0F4
S1130370A901849F9001859F300D11249F5F9617DA
S1130380B8F3C9010895CF92DF92EF92FF920F93D1
S11303901F93CF93DF937C01009789F480E30E943D
S11303A052012FC0DF5FADECBCEC0E9409059C013B
S11303B036952795369527953695279502C09C0145
S11303C0D0E02115310571F7CE2CDF2CC0E017C029
S11303D06D2F6C1B61508AE00E94B4018C018C2D3E
S11303E09D2DB8010E94F50480E3860F0E945201FE
S11303F0C701B8010E94F504C82ED92ECF5FCD17CE
S113040038F380E0DF91CF911F910F91FF90EF902F
S1130410DF90CF9008950E9449000E946B010E94D2
S1130420E5028FE70E9409031FBC82E48EBD1DBC58
S11304301CBC0E94D20089B7806289BF809176007B
S11304408330E1F720917B0030917C00809177002C
S113045090917800281B390B4091790050917A00D3
S113046080917B0090917C00481B590B64E6649F4B
S1130470C001659F900D1124B9010E94F504EB01A0
S1130480B90180E090E00E94FA032DEB37E346E8DF
S113049055E30E9488049B01AC0160E070E080E8B1
S11304A09FE30E9459030E94CB036B017C0180E609
S11304B090E00E94A1016BE081E00E949301CE01D3
S11304C00E94C30185E20E94520160E082E00E9422
S11304D093018DE690E00E94A101C6010E94C30130
S11304E0FFCF1F920F920FB60F9211242F933F93B9
S11304F08F939F938091760081111CC087B590E003
S1130500982F88272091770030917800822B932BA5
S1130510909378008093770026B58091770090912E
S11305207800822B909378008093770081E0809309
S1130530760042C0809176008130F9F48EB58064F3
S11305408EBD87B590E0982F882720917B0030914D
S11305507C00822B932B90937C0080937B0026B5A8
S113056080917B0090917C00822B90937C008093FF
S11305707B0082E0809376001FC0809176008230F9
S1130580D9F487B590E0982F88272091790030918D
S11305907A00822B932B90937A008093790026B56E
S11305A08091790090917A00822B90937A008093C5
S11305B0790083E0809376009F918F913F912F91F2
S11305C00F900FBE0F901F90189583B7806483BF60
S11305D083B7886083BF83B78E7F83BF83B782600E
S11305E083BF83B78B7F83BF83B78F7E83BF83B77C
S11305F0806283BF89B78E7F89BF89B78D7F89BFAA
S113060088B7816088BF88B7826088BF12BE1CBE6D
S113061008958CBF08951F920F920FB60F92112464
S11306202F933F934F935F936F937F938F939F93F6
S1130630AF93BF93EF93FF93E0917F00F09180001D
S11306400995FF91EF91BF91AF919F918F917F9108
S11306506F915F914F913F912F910F900FBE0F902B
S11306601F9018951F920F920FB60F9211242F937B
S11306703F934F935F936F937F938F939F93AF9326
S1130680BF93EF93FF93E0917D00F0917E00099575
S1130690FF91EF91BF91AF919F918F917F916F9156
S11306A05F914F913F912F910F900FBE0F901F902C
S11306B018950E946D030C944E040E94470458F050
S11306C00E94400440F029F45F3F29F00C94370461
S11306D051110C9482040C943D040E945F0468F34D
S11306E09923B1F3552391F3951B550BBB27AA27E7
S11306F062177307840738F09F5F5F4F220F331F21
S1130700441FAA1FA9F335D00E2E3AF0E0E832D0E8
S113071091505040E695001CCAF72BD0FE2F29D0EB
S1130720660F771F881FBB1F261737074807AB07BD
S1130730B0E809F0BB0B802DBF01FF2793585F4F32
S11307403AF09E3F510578F00C9437040C948204DF
S11307505F3FE4F3983ED4F3869577956795B79514
S1130760F7959F5FC9F7880F911D9695879597F91F
S11307700895E1E0660F771F881FBB1F6217730798
S11307808407BA0720F0621B730B840BBA0BEE1FAD
S113079088F7E09508950E94670488F09F5798F0C1
S11307A0B92F9927B751B0F0E1F0660F771F881F72
S11307B0991F1AF0BA95C9F714C0B13091F00E948C
S11307C08104B1E008950C948104672F782F882761
S11307D0B85F39F0B93FCCF3869577956795B395B3
S11307E0D9F73EF490958095709561957F4F8F4F22
S11307F09F4F0895E89409C097FB3EF49095809527
S1130800709561957F4F8F4F9F4F9923A9F0F92FD2
S113081096E9BB279395F695879577956795B79550
S1130820F111F8CFFAF4BB0F11F460FF1BC06F5F36
S11308307F4F8F4F9F4F16C0882311F096E911C048
S1130840772321F09EE8872F762F05C0662371F069
S113085096E8862F70E060E02AF09A95660F771F7D
S1130860881FDAF7880F9695879597F9089597F971
S11308709F6780E870E060E008959FEF80EC089542
S113088000240A941616170618060906089500246B
S11308900A9412161306140605060895092E0394E5
S11308A0000C11F4882352F0BB0F40F4BF2B11F459
S11308B060FF04C06F5F7F4F8F4F9F4F089557FDB8
S11308C09058440F551F59F05F3F71F04795880FBA
S11308D097FB991F61F09F3F79F087950895121651
S11308E013061406551FF2CF4695F1DF08C01616FD
S11308F017061806991FF1CF8695710561050894AE
S11309000895E894BB2766277727CB0197F90895C4
S11309100E949B040C944E040E94400438F00E94F0
S1130920470420F0952311F00C9437040C943D04F3
S113093011240C9482040E945F0470F3959FC1F308
S1130940950F50E0551F629FF001729FBB27F00D79
S1130950B11D639FAA27F00DB11DAA1F649F6627CE
S1130960B00DA11D661F829F2227B00DA11D621F1D
S1130970739FB00DA11D621F839FA00D611D221FD7
S1130980749F3327A00D611D231F849F600D211DBB
S1130990822F762F6A2F11249F5750409AF0F1F03E
S11309A088234AF0EE0FFF1FBB1F661F771F881FA7
S11309B091505040A9F79E3F510580F00C943704A4
S11309C00C9482045F3FE4F3983ED4F386957795C4
S11309D06795B795F795E7959F5FC1F7FE2B880F4D
S11309E0911D9695879597F90895AA1BBB1B51E114
S11309F007C0AA1FBB1FA617B70710F0A61BB70B8B
S1130A00881F991F5A95A9F780959095BC01CD012F
S1130A100895A29FB001B39FC001A39F700D811DD3
S1130A201124911DB29F700D811D1124911D0895F3
S1070A30F894FFCF64
S1130A3444757479204379636C65203D004672657E
S1090A4471203D200000BA
S9030000FC
