S01200004E54495F544553545F312E73726563F8
S11300000C942A000C947D010C9456010C94470026
S11300100C9447000C9447000C9447000C94470040
S11300200C9447000C9447000C940A020C94E301CE
S11300300C9447000C9447000C9447000C94310234
S11300400C9455000C9447000C9447000C94470002
S11300500C94470011241FBECFE5D8E0DEBFCDBF0E
S113006010E0A0E6B0E0E4EBF4E002C005900D92ED
S1130070AE36B107D9F724E0AEE6B0E001C01D9278
S1130080A036B207E1F70E9449000C9458020C9480
S113009000000E94A40140E064E081E00E94E900C5
S11300A080E690E00E94CC01FFCF1F920F920FB622
S11300B00F9211242F933F934F935F936F937F93EA
S11300C08F939F93AF93BF93EF93FF93E09172004D
S11300D0F09173000995FF91EF91BF91AF919F91BA
S11300E08F917F916F915F914F913F912F910F90DD
S11300F00FBE0F901F901895813001F130F08230BF
S1130100B1F1833009F44CC00895413059F42AB355
S113011081E090E002C0880F991F6A95E2F7822B74
S11301208ABB08952AB381E090E002C0880F991F2A
S11301306A95E2F7809582238ABB0895413059F489
S113014027B381E090E002C0880F991F6A95E2F717
S1130150822B87BB089527B381E090E002C0880F0B
S1130160991F6A95E2F78095822387BB08954130F1
S113017059F424B381E090E002C0880F991F6A9576
S1130180E2F7822B84BB089524B381E090E002C09F
S1130190880F991F6A95E2F78095822384BB08959E
S11301A0413059F421B381E090E002C0880F991FD7
S11301B06A95E2F7822B81BB089521B381E090E038
S11301C002C0880F991F6A95E2F78095822381BB4C
S11301D00895813001F130F08230B1F1833009F4B7
S11301E04CC0089541110CC02BB381E090E002C0D3
S11301F0880F991F6A95E2F7809582238BBB089537
S11302002BB381E090E002C0880F991F6A95E2F752
S1130210822B8BBB089541110CC028B381E090E080
S113022002C0880F991F6A95E2F78095822388BBE4
S1130230089528B381E090E002C0880F991F6A9561
S1130240E2F7822B88BB089541110CC025B381E0ED
S113025090E002C0880F991F6A95E2F78095822387
S113026085BB089525B381E090E002C0880F991FF3
S11302706A95E2F7822B85BB089541110CC022B325
S113028081E090E002C0880F991F6A95E2F780959B
S1130290822382BB089522B381E090E002C0880FDC
S11302A0991F6A95E2F7822B82BB08951F920F92E1
S11302B00FB60F9211242F933F934F935F936F9335
S11302C07F938F939F93AF93BF93EF93FF93E091AB
S11302D07000F09171000995FF91EF91BF91AF917A
S11302E09F918F917F916F915F914F913F912F914A
S11302F00F900FBE0F901F9018951F920F920FB67C
S11303000F9211242F933F934F935F936F937F9397
S11303108F939F93AF93BF93EF93FF93E0917000FC
S1130320F09171000995FF91EF91BF91AF919F9169
S11303308F917F916F915F914F913F912F910F908A
S11303400FBE0F901F90189541E064E081E00E9479
S11303507C0041E065E081E00E947C0041E067E0D0
S113036081E00E947C0041E064E081E00E94E900B9
S113037040E066E081E00E947C008DB180618DB92F
S11303808DB181608DB98DB180648DB908958FB9B7
S1130390779BFECF8FB10895CF93DF93EC010CC010
S11303A00E94C7012FEF83EC99E0215080409040D8
S11303B0E1F700C00000219688818111F1CF8FB14F
S11303C0DF91CF9108951F920F920FB60F921124CF
S11303D02F933F934F935F936F937F938F939F9349
S11303E0AF93BF93EF93FF93E0917600F091770082
S11303F00995FF91EF91BF91AF919F918F917F915B
S11304006F915F914F913F912F910F900FBE0F907D
S11304101F9018951F920F920FB60F9211242F93CD
S11304203F934F935F936F937F938F939F93AF9378
S1130430BF93EF93FF93E0917400F09175000995D9
S1130440FF91EF91BF91AF919F918F917F916F91A8
S11304505F914F913F912F910F900FBE0F901F907E
S113046018951F920F920FB60F9211248F939F939A
S1130470EF93FF9380916E0090916F00019690939B
S11304806F0080936E00FC01E858FF4F8081882341
S113049011F08CB904C010926F0010926E00FF919D
S11304A0EF919F918F910F900FBE0F901F90189511
S10704B0F894FFCFEA
S11104B42061646C79206D6F68616D65640071
S9030000FC
